:10000000020145E4F513E513B40800504D900014C7
:10001000F828287302002C02003002003802003C4D
:10002000020044020048020050020054C2A28002B2
:10003000D2A2C2A3C2A48022C2A28002D2A2D2A310
:10004000C2A48016C2A28002D2A2C2A3D2A4800AF5
:10005000C2A28002D2A2D2A3D2A474082513F8E6C9
:10006000F5807F017E00120125E4F5800513E5137C
:10007000C394084091227FFFC297209302E4FF209F
:1000800092027F012091027F022090027F03D2978B
:10009000C2962093027F072092027F062091027F62
:1000A000052090027F04D296C2952093027F0820FB
:1000B00092027F092091027F0A2090027F0BD29545
:1000C000C2942093027F0F2092027F0E2091027F24
:1000D0000D2090027F0CD29422E4F5117512FF12CC
:1000E00000768F10E510F4600AE512B4FF05751173
:1000F00001802AE510F47025E512F46020E4F51182
:10010000850E0F850D0E850C0D850B0C850A0B8554
:10011000090A850809E51290015193F50885101226
:1001200012000380BAE4FDFCC3ED9FEC9E5015E481
:10013000FBFA0BBB00010AEB64714A70F50DBD00C0
:10014000010C80E422787FE4F6D8FD75811302006B
:10015000D93F065B4F666D7D077F6F777C395E798F
:01016000712D
:00000001FF
