:100097003F065B4F666D7D077F6F777C395E7971B1
:10000300E4F508E508B40800504D900014F82828DA
:100013007302002C02003002003802003C0200444C
:10002300020048020050020054C2A28002D2A2C2BF
:10003300A3C2A48022C2A28002D2A2D2A3C2A4805D
:1000430016C2A28002D2A2C2A3D2A4800AC2A280F4
:1000530002D2A2D2A3D2A4E50890009793F5807FA1
:10006300017E00120077E4F5800508E508C39408D3
:040073004091808CAC
:10007700E4FDFCC3ED9FEC9E5015E4FBFA0BBB00BF
:0F008700010AEB64714A70F50DBD00010C80E4B5
:010096002247
:030000000200A754
:0C00A700787FE4F6D8FD758108020003A4
:00000001FF
