:02015800C100E4
:1000FF00E4F509F50A7F0A7E0012013830B10930A4
:10010F00B00630B20320B30A200009D2007E007F70
:10011F000122C200050AE50A70020509C39432E5FF
:08012F0009940040D0E4FEFF3A
:0101370022A5
:10008F00E4F50820B1197F147E0012013830B1FD5C
:10009F0075A0FF1200FFEF4E700563A0FF80F420E4
:1000AF00B0197F147E0012013830B0FD75A05512C3
:1000BF0000FFEF4E700563A0FF80F420B2197F148C
:1000CF007E0012013830B2FD75A0F01200FFEF4E26
:1000DF00700563A0FF80F420B3A97F147E00120186
:1000EF003830B3FD75A0FF1200FFEF4E60F980931B
:10013800E4FDFCC3ED9FEC9E5015E4FBFA0BBB00FD
:0F014800010AEB64714A70F50DBD00010C80E4F3
:010157002285
:03000000020003F8
:0C000300787FE4F6D8FD75812002004AE9
:10000F0002008FE493A3F8E493A34003F68001F278
:10001F0008DFF48029E493A3F85407240CC8C333F2
:10002F00C4540F4420C8834004F456800146F6DFC1
:10003F00E4800B0102040810204080900158E47EF8
:10004F00019360BCA3FF543F30E509541FFEE493B6
:10005F00A360010ECF54C025E060A840B8E493A37D
:10006F00FAE493A3F8E493A3C8C582C8CAC583CAA8
:10007F00F0A3C8C582C8CAC583CADFE9DEE780BE60
:01015A0000A4
:00000001FF
