:0A0121003F065B4F666D7D077F6FA0
:10000300E4F50AF50BE4F508F509AE0AAF0B7C003D
:100013007D0A1200A08E0C8F0DAE0AAF0B7C007D03
:100023000A1200A08C0E8D0FC2A2C2A3C2A4742117
:10003300250FF5827401350EF583E493F5807F0176
:100043007E001200F5E4F580D2A2C2A3C2A47421FB
:10005300250DF5827401350CF583E493F5807F015A
:100063007E001200F5E4F5800509E5097002050834
:10007300C394CCE50894014091050BE50B70020590
:100083000AC39464E50A94004005E4F50AF50BE518
:0D0093000B450A7003020008B2900200083D
:1000F500E4FDFCC3ED9FEC9E5015E4FBFA0BBB0041
:0F010500010AEB64714A70F50DBD00010C80E436
:0101140022C8
:03000000020115E5
:0C011500787FE4F6D8FD75810F0200032E
:1000A000BC000BBE0029EF8DF084FFADF022E4CC44
:1000B000F875F008EF2FFFEE33FEEC33FCEE9DEC0D
:1000C000984005FCEE9DFE0FD5F0E9E4CEFD22ED53
:1000D000F8F5F0EE8420D21CFEADF075F008EF2F9D
:1000E000FFED33FD4007985006D5F0F222C398FD8E
:0500F0000FD5F0EA222B
:00000001FF
